{
        "contractName": "PaperReviewSystem",
        "abi": [
                {
                        "anonymous": false,
                        "inputs": [
                                {
                                        "indexed": true,
                                        "internalType": "uint256",
                                        "name": "paperId",
                                        "type": "uint256"
                                },
                                {
                                        "indexed": true,
                                        "internalType": "address",
                                        "name": "author",
                                        "type": "address"
                                },
                                {
                                        "indexed": false,
                                        "internalType": "string",
                                        "name": "paperHash",
                                        "type": "string"
                                }
                        ],
                        "name": "PaperSubmitted",
                        "type": "event"
                },
                {
                        "anonymous": false,
                        "inputs": [
                                {
                                        "indexed": true,
                                        "internalType": "uint256",
                                        "name": "paperId",
                                        "type": "uint256"
                                },
                                {
                                        "indexed": false,
                                        "internalType": "enum PaperReviewSystem.ReviewStatus",
                                        "name": "status",
                                        "type": "uint8"
                                },
                                {
                                        "indexed": false,
                                        "internalType": "string",
                                        "name": "marksheetHash",
                                        "type": "string"
                                }
                        ],
                        "name": "ReviewCompleted",
                        "type": "event"
                },
                {
                        "anonymous": false,
                        "inputs": [
                                {
                                        "indexed": true,
                                        "internalType": "uint256",
                                        "name": "paperId",
                                        "type": "uint256"
                                }
                        ],
                        "name": "ReviewStarted",
                        "type": "event"
                },
                {
                        "anonymous": false,
                        "inputs": [
                                {
                                        "indexed": true,
                                        "internalType": "uint256",
                                        "name": "paperId",
                                        "type": "uint256"
                                },
                                {
                                        "indexed": true,
                                        "internalType": "address",
                                        "name": "reviewer",
                                        "type": "address"
                                }
                        ],
                        "name": "ReviewerAssigned",
                        "type": "event"
                },
                {
                        "inputs": [
                                {
                                        "internalType": "address",
                                        "name": "",
                                        "type": "address"
                                }
                        ],
                        "name": "approvedReviewers",
                        "outputs": [
                                {
                                        "internalType": "bool",
                                        "name": "",
                                        "type": "bool"
                                }
                        ],
                        "stateMutability": "view",
                        "type": "function",
                        "constant": true
                },
                {
                        "inputs": [],
                        "name": "paperCount",
                        "outputs": [
                                {
                                        "internalType": "uint256",
                                        "name": "",
                                        "type": "uint256"
                                }
                        ],
                        "stateMutability": "view",
                        "type": "function",
                        "constant": true
                },
                {
                        "inputs": [
                                {
                                        "internalType": "uint256",
                                        "name": "",
                                        "type": "uint256"
                                }
                        ],
                        "name": "papers",
                        "outputs": [
                                {
                                        "internalType": "address",
                                        "name": "author",
                                        "type": "address"
                                },
                                {
                                        "internalType": "string",
                                        "name": "paperHash",
                                        "type": "string"
                                },
                                {
                                        "internalType": "string",
                                        "name": "marksheetHash",
                                        "type": "string"
                                },
                                {
                                        "internalType": "enum PaperReviewSystem.ReviewStatus",
                                        "name": "status",
                                        "type": "uint8"
                                },
                                {
                                        "internalType": "address",
                                        "name": "assignedReviewer",
                                        "type": "address"
                                },
                                {
                                        "internalType": "uint256",
                                        "name": "submissionTime",
                                        "type": "uint256"
                                },
                                {
                                        "internalType": "uint256",
                                        "name": "reviewStartTime",
                                        "type": "uint256"
                                },
                                {
                                        "internalType": "uint256",
                                        "name": "reviewCompletionTime",
                                        "type": "uint256"
                                },
                                {
                                        "internalType": "string",
                                        "name": "comments",
                                        "type": "string"
                                }
                        ],
                        "stateMutability": "view",
                        "type": "function",
                        "constant": true
                },
                {
                        "inputs": [
                                {
                                        "internalType": "string",
                                        "name": "_paperHash",
                                        "type": "string"
                                }
                        ],
                        "name": "submitPaper",
                        "outputs": [],
                        "stateMutability": "nonpayable",
                        "type": "function"
                },
                {
                        "inputs": [
                                {
                                        "internalType": "uint256",
                                        "name": "_paperId",
                                        "type": "uint256"
                                },
                                {
                                        "internalType": "address",
                                        "name": "_reviewer",
                                        "type": "address"
                                }
                        ],
                        "name": "assignReviewer",
                        "outputs": [],
                        "stateMutability": "nonpayable",
                        "type": "function"
                },
                {
                        "inputs": [
                                {
                                        "internalType": "uint256",
                                        "name": "_paperId",
                                        "type": "uint256"
                                },
                                {
                                        "internalType": "bool",
                                        "name": "_accepted",
                                        "type": "bool"
                                },
                                {
                                        "internalType": "string",
                                        "name": "_comments",
                                        "type": "string"
                                },
                                {
                                        "internalType": "string",
                                        "name": "_marksheetHash",
                                        "type": "string"
                                }
                        ],
                        "name": "completeReview",
                        "outputs": [],
                        "stateMutability": "nonpayable",
                        "type": "function"
                },
                {
                        "inputs": [
                                {
                                        "internalType": "uint256",
                                        "name": "_paperId",
                                        "type": "uint256"
                                }
                        ],
                        "name": "getPaperStatus",
                        "outputs": [
                                {
                                        "internalType": "enum PaperReviewSystem.ReviewStatus",
                                        "name": "status",
                                        "type": "uint8"
                                },
                                {
                                        "internalType": "uint256",
                                        "name": "submissionTime",
                                        "type": "uint256"
                                },
                                {
                                        "internalType": "uint256",
                                        "name": "reviewStartTime",
                                        "type": "uint256"
                                },
                                {
                                        "internalType": "uint256",
                                        "name": "reviewCompletionTime",
                                        "type": "uint256"
                                },
                                {
                                        "internalType": "string",
                                        "name": "marksheetHash",
                                        "type": "string"
                                }
                        ],
                        "stateMutability": "view",
                        "type": "function",
                        "constant": true
                }
        ],
        "bytecode": "0x608060405234801561001057600080fd5b50611b32806100206000396000f3fe608060405234801561001057600080fd5b506004361061007d5760003560e01c80635e775a271161005b5780635e775a2714610102578063a56c2cb91461013a578063d27e384914610158578063de7cc07f146101745761007d565b8063176126701461008257806325c2b2371461009e5780634617c97c146100d2575b600080fd5b61009c60048036038101906100979190610f52565b610190565b005b6100b860048036038101906100b39190610f92565b61040c565b6040516100c99594939291906110d5565b60405180910390f35b6100ec60048036038101906100e7919061112f565b610764565b6040516100f99190611177565b60405180910390f35b61011c60048036038101906101179190610f92565b610784565b604051610131999897969594939291906111a1565b60405180910390f35b6101426109b7565b60405161014f9190611243565b60405180910390f35b610172600480360381019061016d91906113bf565b6109bd565b005b61018e6004803603810190610189919061145e565b610c68565b005b8160015481106101d5576040517f08c379a00000000000000000000000000000000000000000000000000000000081526004016101cc906114f3565b60405180910390fd5b600260008373ffffffffffffffffffffffffffffffffffffffff1673ffffffffffffffffffffffffffffffffffffffff16815260200190815260200160002060009054906101000a900460ff16610261576040517f08c379a000000000000000000000000000000000000000000000000000000000815260040161025890611585565b60405180910390fd5b6000600381111561027557610274610fbf565b5b60008085815260200190815260200160002060030160009054906101000a900460ff1660038111156102aa576102a9610fbf565b5b146102ea576040517f08c379a00000000000000000000000000000000000000000000000000000000081526004016102e1906115f1565b60405180910390fd5b8160008085815260200190815260200160002060030160016101000a81548173ffffffffffffffffffffffffffffffffffffffff021916908373ffffffffffffffffffffffffffffffffffffffff160217905550600160008085815260200190815260200160002060030160006101000a81548160ff0219169083600381111561037757610376610fbf565b5b021790555042600080858152602001908152602001600020600501819055508173ffffffffffffffffffffffffffffffffffffffff16837fbc1f3daf62009283f8f2078bc45883e8dbb3f415bc325829ce38ece15b5f899060405160405180910390a3827f66bf18a96fd4d601d68d43b0af1f8f67adbb0b93ea80de1a99c13863a64f811260405160405180910390a2505050565b6000806000806060856001548110610459576040517f08c379a0000000000000000000000000000000000000000000000000000000008152600401610450906114f3565b60405180910390fd5b6000806000898152602001908152602001600020604051806101200160405290816000820160009054906101000a900473ffffffffffffffffffffffffffffffffffffffff1673ffffffffffffffffffffffffffffffffffffffff1673ffffffffffffffffffffffffffffffffffffffff1681526020016001820180546104df90611640565b80601f016020809104026020016040519081016040528092919081815260200182805461050b90611640565b80156105585780601f1061052d57610100808354040283529160200191610558565b820191906000526020600020905b81548152906001019060200180831161053b57829003601f168201915b5050505050815260200160028201805461057190611640565b80601f016020809104026020016040519081016040528092919081815260200182805461059d90611640565b80156105ea5780601f106105bf576101008083540402835291602001916105ea565b820191906000526020600020905b8154815290600101906020018083116105cd57829003601f168201915b505050505081526020016003820160009054906101000a900460ff16600381111561061857610617610fbf565b5b600381111561062a57610629610fbf565b5b81526020016003820160019054906101000a900473ffffffffffffffffffffffffffffffffffffffff1673ffffffffffffffffffffffffffffffffffffffff1673ffffffffffffffffffffffffffffffffffffffff1681526020016004820154815260200160058201548152602001600682015481526020016007820180546106b290611640565b80601f01602080910402602001604051908101604052809291908181526020018280546106de90611640565b801561072b5780601f106107005761010080835404028352916020019161072b565b820191906000526020600020905b81548152906001019060200180831161070e57829003601f168201915b505050505081525050905080606001518160a001518260c001518360e00151846040015196509650965096509650505091939590929450565b60026020528060005260406000206000915054906101000a900460ff1681565b60006020528060005260406000206000915090508060000160009054906101000a900473ffffffffffffffffffffffffffffffffffffffff16908060010180546107cd90611640565b80601f01602080910402602001604051908101604052809291908181526020018280546107f990611640565b80156108465780601f1061081b57610100808354040283529160200191610846565b820191906000526020600020905b81548152906001019060200180831161082957829003601f168201915b50505050509080600201805461085b90611640565b80601f016020809104026020016040519081016040528092919081815260200182805461088790611640565b80156108d45780601f106108a9576101008083540402835291602001916108d4565b820191906000526020600020905b8154815290600101906020018083116108b757829003601f168201915b5050505050908060030160009054906101000a900460ff16908060030160019054906101000a900473ffffffffffffffffffffffffffffffffffffffff169080600401549080600501549080600601549080600701805461093490611640565b80601f016020809104026020016040519081016040528092919081815260200182805461096090611640565b80156109ad5780601f10610982576101008083540402835291602001916109ad565b820191906000526020600020905b81548152906001019060200180831161099057829003601f168201915b5050505050905089565b60015481565b600260003373ffffffffffffffffffffffffffffffffffffffff1673ffffffffffffffffffffffffffffffffffffffff16815260200190815260200160002060009054906101000a900460ff16610a49576040517f08c379a0000000000000000000000000000000000000000000000000000000008152600401610a40906116bd565b60405180910390fd5b836001548110610a8e576040517f08c379a0000000000000000000000000000000000000000000000000000000008152600401610a85906114f3565b60405180910390fd5b600080600087815260200190815260200160002090503373ffffffffffffffffffffffffffffffffffffffff168160030160019054906101000a900473ffffffffffffffffffffffffffffffffffffffff1673ffffffffffffffffffffffffffffffffffffffff1614610b36576040517f08c379a0000000000000000000000000000000000000000000000000000000008152600401610b2d90611729565b60405180910390fd5b60016003811115610b4a57610b49610fbf565b5b8160030160009054906101000a900460ff166003811115610b6e57610b6d610fbf565b5b14610bae576040517f08c379a0000000000000000000000000000000000000000000000000000000008152600401610ba590611795565b60405180910390fd5b84610bba576003610bbd565b60025b8160030160006101000a81548160ff02191690836003811115610be357610be2610fbf565b5b021790555042816006018190555083816007019081610c029190611961565b5082816002019081610c149190611961565b50857f189008740b27f89f96c6b46777aede6bed718bb3fe3b148705cc2745c53343658260030160009054906101000a900460ff1685604051610c58929190611a33565b60405180910390a2505050505050565b600060016000815480929190610c7d90611a92565b9190505590506040518061012001604052803373ffffffffffffffffffffffffffffffffffffffff16815260200183815260200160405180602001604052806000815250815260200160006003811115610cda57610cd9610fbf565b5b8152602001600073ffffffffffffffffffffffffffffffffffffffff16815260200142815260200160008152602001600081526020016040518060200160405280600081525081525060008083815260200190815260200160002060008201518160000160006101000a81548173ffffffffffffffffffffffffffffffffffffffff021916908373ffffffffffffffffffffffffffffffffffffffff1602179055506020820151816001019081610d919190611961565b506040820151816002019081610da79190611961565b5060608201518160030160006101000a81548160ff02191690836003811115610dd357610dd2610fbf565b5b021790555060808201518160030160016101000a81548173ffffffffffffffffffffffffffffffffffffffff021916908373ffffffffffffffffffffffffffffffffffffffff16021790555060a0820151816004015560c0820151816005015560e08201518160060155610100820151816007019081610e539190611961565b509050503373ffffffffffffffffffffffffffffffffffffffff16817fb3ea4b5389ebdfde0fd6521ba6b05a830220cc72bedebcd0d0d44b1d916c21c484604051610e9e9190611ada565b60405180910390a35050565b6000604051905090565b600080fd5b600080fd5b6000819050919050565b610ed181610ebe565b8114610edc57600080fd5b50565b600081359050610eee81610ec8565b92915050565b600073ffffffffffffffffffffffffffffffffffffffff82169050919050565b6000610f1f82610ef4565b9050919050565b610f2f81610f14565b8114610f3a57600080fd5b50565b600081359050610f4c81610f26565b92915050565b60008060408385031215610f6957610f68610eb4565b5b6000610f7785828601610edf565b9250506020610f8885828601610f3d565b9150509250929050565b600060208284031215610fa857610fa7610eb4565b5b6000610fb684828501610edf565b91505092915050565b7f4e487b7100000000000000000000000000000000000000000000000000000000600052602160045260246000fd5b60048110610fff57610ffe610fbf565b5b50565b600081905061101082610fee565b919050565b600061102082611002565b9050919050565b61103081611015565b82525050565b61103f81610ebe565b82525050565b600081519050919050565b600082825260208201905092915050565b60005b8381101561107f578082015181840152602081019050611064565b60008484015250505050565b6000601f19601f8301169050919050565b60006110a782611045565b6110b18185611050565b93506110c1818560208601611061565b6110ca8161108b565b840191505092915050565b600060a0820190506110ea6000830188611027565b6110f76020830187611036565b6111046040830186611036565b6111116060830185611036565b8181036080830152611123818461109c565b90509695505050505050565b60006020828403121561114557611144610eb4565b5b600061115384828501610f3d565b91505092915050565b60008115159050919050565b6111718161115c565b82525050565b600060208201905061118c6000830184611168565b92915050565b61119b81610f14565b82525050565b6000610120820190506111b7600083018c611192565b81810360208301526111c9818b61109c565b905081810360408301526111dd818a61109c565b90506111ec6060830189611027565b6111f96080830188611192565b61120660a0830187611036565b61121360c0830186611036565b61122060e0830185611036565b818103610100830152611233818461109c565b90509a9950505050505050505050565b60006020820190506112586000830184611036565b92915050565b6112678161115c565b811461127257600080fd5b50565b6000813590506112848161125e565b92915050565b600080fd5b600080fd5b7f4e487b7100000000000000000000000000000000000000000000000000000000600052604160045260246000fd5b6112cc8261108b565b810181811067ffffffffffffffff821117156112eb576112ea611294565b5b80604052505050565b60006112fe610eaa565b905061130a82826112c3565b919050565b600067ffffffffffffffff82111561132a57611329611294565b5b6113338261108b565b9050602081019050919050565b82818337600083830152505050565b600061136261135d8461130f565b6112f4565b90508281526020810184848401111561137e5761137d61128f565b5b611389848285611340565b509392505050565b600082601f8301126113a6576113a561128a565b5b81356113b684826020860161134f565b91505092915050565b600080600080608085870312156113d9576113d8610eb4565b5b60006113e787828801610edf565b94505060206113f887828801611275565b935050604085013567ffffffffffffffff81111561141957611418610eb9565b5b61142587828801611391565b925050606085013567ffffffffffffffff81111561144657611445610eb9565b5b61145287828801611391565b91505092959194509250565b60006020828403121561147457611473610eb4565b5b600082013567ffffffffffffffff81111561149257611491610eb9565b5b61149e84828501611391565b91505092915050565b7f506170657220646f6573206e6f74206578697374000000000000000000000000600082015250565b60006114dd601483611050565b91506114e8826114a7565b602082019050919050565b6000602082019050818103600083015261150c816114d0565b9050919050565b7f41737369676e65642061646472657373206973206e6f7420616e20617070726f60008201527f7665642072657669657765720000000000000000000000000000000000000000602082015250565b600061156f602c83611050565b915061157a82611513565b604082019050919050565b6000602082019050818103600083015261159e81611562565b9050919050565b7f50617065722063616e6e6f742062652061737369676e65640000000000000000600082015250565b60006115db601883611050565b91506115e6826115a5565b602082019050919050565b6000602082019050818103600083015261160a816115ce565b9050919050565b7f4e487b7100000000000000000000000000000000000000000000000000000000600052602260045260246000fd5b6000600282049050600182168061165857607f821691505b60208210810361166b5761166a611611565b5b50919050565b7f4e6f7420616e20617070726f7665642072657669657765720000000000000000600082015250565b60006116a7601883611050565b91506116b282611671565b602082019050919050565b600060208201905081810360008301526116d68161169a565b9050919050565b7f4e6f742061737369676e656420746f2074686973207061706572000000000000600082015250565b6000611713601a83611050565b915061171e826116dd565b602082019050919050565b6000602082019050818103600083015261174281611706565b9050919050565b7f5061706572206e6f7420756e6465722072657669657700000000000000000000600082015250565b600061177f601683611050565b915061178a82611749565b602082019050919050565b600060208201905081810360008301526117ae81611772565b9050919050565b60008190508160005260206000209050919050565b60006020601f8301049050919050565b600082821b905092915050565b6000600883026118177fffffffffffffffffffffffffffffffffffffffffffffffffffffffffffffffff826117da565b61182186836117da565b95508019841693508086168417925050509392505050565b6000819050919050565b600061185e61185961185484610ebe565b611839565b610ebe565b9050919050565b6000819050919050565b61187883611843565b61188c61188482611865565b8484546117e7565b825550505050565b600090565b6118a1611894565b6118ac81848461186f565b505050565b5b818110156118d0576118c5600082611899565b6001810190506118b2565b5050565b601f821115611915576118e6816117b5565b6118ef846117ca565b810160208510156118fe578190505b61191261190a856117ca565b8301826118b1565b50505b505050565b600082821c905092915050565b60006119386000198460080261191a565b1980831691505092915050565b60006119518383611927565b9150826002028217905092915050565b61196a82611045565b67ffffffffffffffff81111561198357611982611294565b5b61198d8254611640565b6119988282856118d4565b600060209050601f8311600181146119cb57600084156119b9578287015190505b6119c38582611945565b865550611a2b565b601f1984166119d9866117b5565b60005b82811015611a01578489015182556001820191506020850194506020810190506119dc565b86831015611a1e5784890151611a1a601f891682611927565b8355505b6001600288020188555050505b505050505050565b6000604082019050611a486000830185611027565b8181036020830152611a5a818461109c565b90509392505050565b7f4e487b7100000000000000000000000000000000000000000000000000000000600052601160045260246000fd5b6000611a9d82610ebe565b91507fffffffffffffffffffffffffffffffffffffffffffffffffffffffffffffffff8203611acf57611ace611a63565b5b600182019050919050565b60006020820190508181036000830152611af4818461109c565b90509291505056fea2646970667358221220fff0073bf0f74922bb46d68a106c80fd266cd0aceb1fb371204e21c1d346750064736f6c63430008130033",
        "immutableReferences": {},
        "source": "// SPDX-License-Identifier: MIT\r\npragma solidity ^0.8.0;\r\n\r\ncontract PaperReviewSystem {\r\n    enum ReviewStatus { \r\n        Pending,        // Paper initially submitted\r\n        UnderReview,    // Reviewer is checking the paper\r\n        Completed,      // Review process completed\r\n        Rejected        // Paper rejected\r\n    }\r\n    \r\n    struct Paper {\r\n        address author;\r\n        string paperHash;     // IPFS hash of the paper\r\n        string marksheetHash; // IPFS hash of the marksheet\r\n        ReviewStatus status;\r\n        address assignedReviewer;\r\n        uint256 submissionTime;\r\n        uint256 reviewStartTime;\r\n        uint256 reviewCompletionTime;\r\n        string comments;\r\n    }\r\n    \r\n    // Paper ID => Paper details\r\n    mapping(uint256 => Paper) public papers;\r\n    uint256 public paperCount;\r\n    \r\n    // Reviewer address => boolean (approved or not)\r\n    mapping(address => bool) public approvedReviewers;\r\n    \r\n    // Events for logging\r\n    event PaperSubmitted(uint256 indexed paperId, address indexed author, string paperHash);\r\n    event ReviewerAssigned(uint256 indexed paperId, address indexed reviewer);\r\n    event ReviewStarted(uint256 indexed paperId);\r\n    event ReviewCompleted(uint256 indexed paperId, ReviewStatus status, string marksheetHash);\r\n    \r\n    // Modifiers\r\n    modifier onlyApprovedReviewer() {\r\n        require(approvedReviewers[msg.sender], \"Not an approved reviewer\");\r\n        _;\r\n    }\r\n    \r\n    modifier paperExists(uint256 _paperId) {\r\n        require(_paperId < paperCount, \"Paper does not exist\");\r\n        _;\r\n    }\r\n    \r\n    // Functions\r\n    function submitPaper(string memory _paperHash) external {\r\n        uint256 paperId = paperCount++;\r\n        papers[paperId] = Paper({\r\n            author: msg.sender,\r\n            paperHash: _paperHash,\r\n            marksheetHash: \"\",\r\n            status: ReviewStatus.Pending,\r\n            assignedReviewer: address(0),\r\n            submissionTime: block.timestamp,\r\n            reviewStartTime: 0,\r\n            reviewCompletionTime: 0,\r\n            comments: \"\"\r\n        });\r\n        \r\n        emit PaperSubmitted(paperId, msg.sender, _paperHash);\r\n    }\r\n    \r\n    function assignReviewer(uint256 _paperId, address _reviewer) \r\n        external \r\n        paperExists(_paperId) \r\n    {\r\n        require(approvedReviewers[_reviewer], \"Assigned address is not an approved reviewer\");\r\n        require(papers[_paperId].status == ReviewStatus.Pending, \"Paper cannot be assigned\");\r\n        \r\n        papers[_paperId].assignedReviewer = _reviewer;\r\n        papers[_paperId].status = ReviewStatus.UnderReview;\r\n        papers[_paperId].reviewStartTime = block.timestamp;\r\n        \r\n        emit ReviewerAssigned(_paperId, _reviewer);\r\n        emit ReviewStarted(_paperId);\r\n    }\r\n    \r\n    function completeReview(\r\n        uint256 _paperId, \r\n        bool _accepted, \r\n        string memory _comments,\r\n        string memory _marksheetHash\r\n    ) \r\n        external \r\n        onlyApprovedReviewer \r\n        paperExists(_paperId) \r\n    {\r\n        Paper storage paper = papers[_paperId];\r\n        require(paper.assignedReviewer == msg.sender, \"Not assigned to this paper\");\r\n        require(paper.status == ReviewStatus.UnderReview, \"Paper not under review\");\r\n        \r\n        paper.status = _accepted ? ReviewStatus.Completed : ReviewStatus.Rejected;\r\n        paper.reviewCompletionTime = block.timestamp;\r\n        paper.comments = _comments;\r\n        paper.marksheetHash = _marksheetHash;\r\n        \r\n        emit ReviewCompleted(_paperId, paper.status, _marksheetHash);\r\n    }\r\n    \r\n    // Getter functions\r\n    function getPaperStatus(uint256 _paperId) \r\n        external \r\n        view \r\n        paperExists(_paperId) \r\n        returns (\r\n            ReviewStatus status,\r\n            uint256 submissionTime,\r\n            uint256 reviewStartTime,\r\n            uint256 reviewCompletionTime,\r\n            string memory marksheetHash\r\n        ) \r\n    {\r\n        Paper memory paper = papers[_paperId];\r\n        return (\r\n            paper.status,\r\n            paper.submissionTime,\r\n            paper.reviewStartTime,\r\n            paper.reviewCompletionTime,\r\n            paper.marksheetHash\r\n        );\r\n    }\r\n}",
        "sourcePath": "C:\\AK\\SheetAgent\\paper-review-project\\contracts\\PaperReviewSystem.sol",
        "compiler": {
                "name": "solc",
                "version": "0.8.19+commit.7dd6d404.Emscripten.clang"
        },
        "schemaVersion": "3.4.16",
        "updatedAt": "2025-02-22T21:58:22.535Z",
        "networkType": "ethereum",
        "devdoc": {
                "kind": "dev",
                "methods": {},
                "version": 1
        },
        "userdoc": {
                "kind": "user",
                "methods": {},
                "version": 1
        }
}