{
  "contractName": "PaperReviewSystem",
  "abi": [
    {
      "anonymous": false,
      "inputs": [
        {
          "indexed": true,
          "internalType": "uint256",
          "name": "paperId",
          "type": "uint256"
        },
        {
          "indexed": true,
          "internalType": "address",
          "name": "author",
          "type": "address"
        },
        {
          "indexed": false,
          "internalType": "string",
          "name": "paperHash",
          "type": "string"
        }
      ],
      "name": "PaperSubmitted",
      "type": "event"
    },
    {
      "anonymous": false,
      "inputs": [
        {
          "indexed": true,
          "internalType": "uint256",
          "name": "paperId",
          "type": "uint256"
        },
        {
          "indexed": false,
          "internalType": "enum PaperReviewSystem.ReviewStatus",
          "name": "status",
          "type": "uint8"
        }
      ],
      "name": "ReviewCompleted",
      "type": "event"
    },
    {
      "anonymous": false,
      "inputs": [
        {
          "indexed": true,
          "internalType": "uint256",
          "name": "paperId",
          "type": "uint256"
        }
      ],
      "name": "ReviewStarted",
      "type": "event"
    },
    {
      "anonymous": false,
      "inputs": [
        {
          "indexed": true,
          "internalType": "uint256",
          "name": "paperId",
          "type": "uint256"
        },
        {
          "indexed": true,
          "internalType": "address",
          "name": "reviewer",
          "type": "address"
        }
      ],
      "name": "ReviewerAssigned",
      "type": "event"
    },
    {
      "inputs": [
        {
          "internalType": "address",
          "name": "",
          "type": "address"
        }
      ],
      "name": "approvedReviewers",
      "outputs": [
        {
          "internalType": "bool",
          "name": "",
          "type": "bool"
        }
      ],
      "stateMutability": "view",
      "type": "function",
      "constant": true
    },
    {
      "inputs": [],
      "name": "paperCount",
      "outputs": [
        {
          "internalType": "uint256",
          "name": "",
          "type": "uint256"
        }
      ],
      "stateMutability": "view",
      "type": "function",
      "constant": true
    },
    {
      "inputs": [
        {
          "internalType": "uint256",
          "name": "",
          "type": "uint256"
        }
      ],
      "name": "papers",
      "outputs": [
        {
          "internalType": "address",
          "name": "author",
          "type": "address"
        },
        {
          "internalType": "string",
          "name": "paperHash",
          "type": "string"
        },
        {
          "internalType": "enum PaperReviewSystem.ReviewStatus",
          "name": "status",
          "type": "uint8"
        },
        {
          "internalType": "address",
          "name": "assignedReviewer",
          "type": "address"
        },
        {
          "internalType": "uint256",
          "name": "submissionTime",
          "type": "uint256"
        },
        {
          "internalType": "uint256",
          "name": "reviewStartTime",
          "type": "uint256"
        },
        {
          "internalType": "uint256",
          "name": "reviewCompletionTime",
          "type": "uint256"
        },
        {
          "internalType": "string",
          "name": "comments",
          "type": "string"
        }
      ],
      "stateMutability": "view",
      "type": "function",
      "constant": true
    },
    {
      "inputs": [
        {
          "internalType": "string",
          "name": "_paperHash",
          "type": "string"
        }
      ],
      "name": "submitPaper",
      "outputs": [],
      "stateMutability": "nonpayable",
      "type": "function"
    },
    {
      "inputs": [
        {
          "internalType": "uint256",
          "name": "_paperId",
          "type": "uint256"
        },
        {
          "internalType": "address",
          "name": "_reviewer",
          "type": "address"
        }
      ],
      "name": "assignReviewer",
      "outputs": [],
      "stateMutability": "nonpayable",
      "type": "function"
    },
    {
      "inputs": [
        {
          "internalType": "uint256",
          "name": "_paperId",
          "type": "uint256"
        }
      ],
      "name": "startReview",
      "outputs": [],
      "stateMutability": "nonpayable",
      "type": "function"
    },
    {
      "inputs": [
        {
          "internalType": "uint256",
          "name": "_paperId",
          "type": "uint256"
        },
        {
          "internalType": "bool",
          "name": "_accepted",
          "type": "bool"
        },
        {
          "internalType": "string",
          "name": "_comments",
          "type": "string"
        }
      ],
      "name": "completeReview",
      "outputs": [],
      "stateMutability": "nonpayable",
      "type": "function"
    },
    {
      "inputs": [
        {
          "internalType": "uint256",
          "name": "_paperId",
          "type": "uint256"
        }
      ],
      "name": "getPaperStatus",
      "outputs": [
        {
          "internalType": "enum PaperReviewSystem.ReviewStatus",
          "name": "status",
          "type": "uint8"
        },
        {
          "internalType": "uint256",
          "name": "submissionTime",
          "type": "uint256"
        },
        {
          "internalType": "uint256",
          "name": "reviewStartTime",
          "type": "uint256"
        },
        {
          "internalType": "uint256",
          "name": "reviewCompletionTime",
          "type": "uint256"
        }
      ],
      "stateMutability": "view",
      "type": "function",
      "constant": true
    }
  ],
  "bytecode": "0x608060405234801561001057600080fd5b50611bf9806100206000396000f3fe608060405234801561001057600080fd5b50600436106100885760003560e01c806357379a141161005b57806357379a14146101285780635e775a2714610144578063a56c2cb91461017b578063de7cc07f1461019957610088565b8063176126701461008d5780631a3034cd146100a957806325c2b237146100c55780634617c97c146100f8575b600080fd5b6100a760048036038101906100a2919061101d565b6101b5565b005b6100c360048036038101906100be919061105d565b6103ea565b005b6100df60048036038101906100da919061105d565b610643565b6040516100ef9493929190611110565b60405180910390f35b610112600480360381019061010d9190611155565b6108fe565b60405161011f919061119d565b60405180910390f35b610142600480360381019061013d919061132a565b61091e565b005b61015e6004803603810190610159919061105d565b610bb4565b604051610172989796959493929190611427565b60405180910390f35b610183610d59565b60405161019091906114b3565b60405180910390f35b6101b360048036038101906101ae91906114ce565b610d5f565b005b8160015481106101fa576040517f08c379a00000000000000000000000000000000000000000000000000000000081526004016101f190611563565b60405180910390fd5b600260008373ffffffffffffffffffffffffffffffffffffffff1673ffffffffffffffffffffffffffffffffffffffff16815260200190815260200160002060009054906101000a900460ff16610286576040517f08c379a000000000000000000000000000000000000000000000000000000000815260040161027d906115f5565b60405180910390fd5b6000600581111561029a5761029961108a565b5b60008085815260200190815260200160002060020160009054906101000a900460ff1660058111156102cf576102ce61108a565b5b1461030f576040517f08c379a000000000000000000000000000000000000000000000000000000000815260040161030690611661565b60405180910390fd5b8160008085815260200190815260200160002060020160016101000a81548173ffffffffffffffffffffffffffffffffffffffff021916908373ffffffffffffffffffffffffffffffffffffffff160217905550600160008085815260200190815260200160002060020160006101000a81548160ff0219169083600581111561039c5761039b61108a565b5b02179055508173ffffffffffffffffffffffffffffffffffffffff16837fbc1f3daf62009283f8f2078bc45883e8dbb3f415bc325829ce38ece15b5f899060405160405180910390a3505050565b600260003373ffffffffffffffffffffffffffffffffffffffff1673ffffffffffffffffffffffffffffffffffffffff16815260200190815260200160002060009054906101000a900460ff16610476576040517f08c379a000000000000000000000000000000000000000000000000000000000815260040161046d906116cd565b60405180910390fd5b8060015481106104bb576040517f08c379a00000000000000000000000000000000000000000000000000000000081526004016104b290611563565b60405180910390fd5b600080600084815260200190815260200160002090503373ffffffffffffffffffffffffffffffffffffffff168160020160019054906101000a900473ffffffffffffffffffffffffffffffffffffffff1673ffffffffffffffffffffffffffffffffffffffff1614610563576040517f08c379a000000000000000000000000000000000000000000000000000000000815260040161055a90611739565b60405180910390fd5b600160058111156105775761057661108a565b5b8160020160009054906101000a900460ff16600581111561059b5761059a61108a565b5b146105db576040517f08c379a00000000000000000000000000000000000000000000000000000000081526004016105d2906117a5565b60405180910390fd5b60028160020160006101000a81548160ff021916908360058111156106035761060261108a565b5b0217905550428160040181905550827f66bf18a96fd4d601d68d43b0af1f8f67adbb0b93ea80de1a99c13863a64f811260405160405180910390a2505050565b60008060008084600154811061068e576040517f08c379a000000000000000000000000000000000000000000000000000000000815260040161068590611563565b60405180910390fd5b6000806000888152602001908152602001600020604051806101000160405290816000820160009054906101000a900473ffffffffffffffffffffffffffffffffffffffff1673ffffffffffffffffffffffffffffffffffffffff1673ffffffffffffffffffffffffffffffffffffffff168152602001600182018054610714906117f4565b80601f0160208091040260200160405190810160405280929190818152602001828054610740906117f4565b801561078d5780601f106107625761010080835404028352916020019161078d565b820191906000526020600020905b81548152906001019060200180831161077057829003601f168201915b505050505081526020016002820160009054906101000a900460ff1660058111156107bb576107ba61108a565b5b60058111156107cd576107cc61108a565b5b81526020016002820160019054906101000a900473ffffffffffffffffffffffffffffffffffffffff1673ffffffffffffffffffffffffffffffffffffffff1673ffffffffffffffffffffffffffffffffffffffff168152602001600382015481526020016004820154815260200160058201548152602001600682018054610855906117f4565b80601f0160208091040260200160405190810160405280929190818152602001828054610881906117f4565b80156108ce5780601f106108a3576101008083540402835291602001916108ce565b820191906000526020600020905b8154815290600101906020018083116108b157829003601f168201915b5050505050815250509050806040015181608001518260a001518360c00151955095509550955050509193509193565b60026020528060005260406000206000915054906101000a900460ff1681565b600260003373ffffffffffffffffffffffffffffffffffffffff1673ffffffffffffffffffffffffffffffffffffffff16815260200190815260200160002060009054906101000a900460ff166109aa576040517f08c379a00000000000000000000000000000000000000000000000000000000081526004016109a1906116cd565b60405180910390fd5b8260015481106109ef576040517f08c379a00000000000000000000000000000000000000000000000000000000081526004016109e690611563565b60405180910390fd5b600080600086815260200190815260200160002090503373ffffffffffffffffffffffffffffffffffffffff168160020160019054906101000a900473ffffffffffffffffffffffffffffffffffffffff1673ffffffffffffffffffffffffffffffffffffffff1614610a97576040517f08c379a0000000000000000000000000000000000000000000000000000000008152600401610a8e90611739565b60405180910390fd5b60026005811115610aab57610aaa61108a565b5b8160020160009054906101000a900460ff166005811115610acf57610ace61108a565b5b14610b0f576040517f08c379a0000000000000000000000000000000000000000000000000000000008152600401610b0690611871565b60405180910390fd5b83610b1b576004610b1e565b60055b8160020160006101000a81548160ff02191690836005811115610b4457610b4361108a565b5b021790555042816005018190555082816006019081610b639190611a3d565b50847f1b43ac606a8ce5587ac8a866a43bbbc9a38ebaa8b3a28d5561086b2e134644e88260020160009054906101000a900460ff16604051610ba59190611b0f565b60405180910390a25050505050565b60006020528060005260406000206000915090508060000160009054906101000a900473ffffffffffffffffffffffffffffffffffffffff1690806001018054610bfd906117f4565b80601f0160208091040260200160405190810160405280929190818152602001828054610c29906117f4565b8015610c765780601f10610c4b57610100808354040283529160200191610c76565b820191906000526020600020905b815481529060010190602001808311610c5957829003601f168201915b5050505050908060020160009054906101000a900460ff16908060020160019054906101000a900473ffffffffffffffffffffffffffffffffffffffff1690806003015490806004015490806005015490806006018054610cd6906117f4565b80601f0160208091040260200160405190810160405280929190818152602001828054610d02906117f4565b8015610d4f5780601f10610d2457610100808354040283529160200191610d4f565b820191906000526020600020905b815481529060010190602001808311610d3257829003601f168201915b5050505050905088565b60015481565b600060016000815480929190610d7490611b59565b9190505590506040518061010001604052803373ffffffffffffffffffffffffffffffffffffffff16815260200183815260200160006005811115610dbc57610dbb61108a565b5b8152602001600073ffffffffffffffffffffffffffffffffffffffff16815260200142815260200160008152602001600081526020016040518060200160405280600081525081525060008083815260200190815260200160002060008201518160000160006101000a81548173ffffffffffffffffffffffffffffffffffffffff021916908373ffffffffffffffffffffffffffffffffffffffff1602179055506020820151816001019081610e739190611a3d565b5060408201518160020160006101000a81548160ff02191690836005811115610e9f57610e9e61108a565b5b021790555060608201518160020160016101000a81548173ffffffffffffffffffffffffffffffffffffffff021916908373ffffffffffffffffffffffffffffffffffffffff1602179055506080820151816003015560a0820151816004015560c0820151816005015560e0820151816006019081610f1e9190611a3d565b509050503373ffffffffffffffffffffffffffffffffffffffff16817fb3ea4b5389ebdfde0fd6521ba6b05a830220cc72bedebcd0d0d44b1d916c21c484604051610f699190611ba1565b60405180910390a35050565b6000604051905090565b600080fd5b600080fd5b6000819050919050565b610f9c81610f89565b8114610fa757600080fd5b50565b600081359050610fb981610f93565b92915050565b600073ffffffffffffffffffffffffffffffffffffffff82169050919050565b6000610fea82610fbf565b9050919050565b610ffa81610fdf565b811461100557600080fd5b50565b60008135905061101781610ff1565b92915050565b6000806040838503121561103457611033610f7f565b5b600061104285828601610faa565b925050602061105385828601611008565b9150509250929050565b60006020828403121561107357611072610f7f565b5b600061108184828501610faa565b91505092915050565b7f4e487b7100000000000000000000000000000000000000000000000000000000600052602160045260246000fd5b600681106110ca576110c961108a565b5b50565b60008190506110db826110b9565b919050565b60006110eb826110cd565b9050919050565b6110fb816110e0565b82525050565b61110a81610f89565b82525050565b600060808201905061112560008301876110f2565b6111326020830186611101565b61113f6040830185611101565b61114c6060830184611101565b95945050505050565b60006020828403121561116b5761116a610f7f565b5b600061117984828501611008565b91505092915050565b60008115159050919050565b61119781611182565b82525050565b60006020820190506111b2600083018461118e565b92915050565b6111c181611182565b81146111cc57600080fd5b50565b6000813590506111de816111b8565b92915050565b600080fd5b600080fd5b6000601f19601f8301169050919050565b7f4e487b7100000000000000000000000000000000000000000000000000000000600052604160045260246000fd5b611237826111ee565b810181811067ffffffffffffffff82111715611256576112556111ff565b5b80604052505050565b6000611269610f75565b9050611275828261122e565b919050565b600067ffffffffffffffff821115611295576112946111ff565b5b61129e826111ee565b9050602081019050919050565b82818337600083830152505050565b60006112cd6112c88461127a565b61125f565b9050828152602081018484840111156112e9576112e86111e9565b5b6112f48482856112ab565b509392505050565b600082601f830112611311576113106111e4565b5b81356113218482602086016112ba565b91505092915050565b60008060006060848603121561134357611342610f7f565b5b600061135186828701610faa565b9350506020611362868287016111cf565b925050604084013567ffffffffffffffff81111561138357611382610f84565b5b61138f868287016112fc565b9150509250925092565b6113a281610fdf565b82525050565b600081519050919050565b600082825260208201905092915050565b60005b838110156113e25780820151818401526020810190506113c7565b60008484015250505050565b60006113f9826113a8565b61140381856113b3565b93506114138185602086016113c4565b61141c816111ee565b840191505092915050565b60006101008201905061143d600083018b611399565b818103602083015261144f818a6113ee565b905061145e60408301896110f2565b61146b6060830188611399565b6114786080830187611101565b61148560a0830186611101565b61149260c0830185611101565b81810360e08301526114a481846113ee565b90509998505050505050505050565b60006020820190506114c86000830184611101565b92915050565b6000602082840312156114e4576114e3610f7f565b5b600082013567ffffffffffffffff81111561150257611501610f84565b5b61150e848285016112fc565b91505092915050565b7f506170657220646f6573206e6f74206578697374000000000000000000000000600082015250565b600061154d6014836113b3565b915061155882611517565b602082019050919050565b6000602082019050818103600083015261157c81611540565b9050919050565b7f41737369676e65642061646472657373206973206e6f7420616e20617070726f60008201527f7665642072657669657765720000000000000000000000000000000000000000602082015250565b60006115df602c836113b3565b91506115ea82611583565b604082019050919050565b6000602082019050818103600083015261160e816115d2565b9050919050565b7f50617065722063616e6e6f742062652061737369676e65640000000000000000600082015250565b600061164b6018836113b3565b915061165682611615565b602082019050919050565b6000602082019050818103600083015261167a8161163e565b9050919050565b7f4e6f7420616e20617070726f7665642072657669657765720000000000000000600082015250565b60006116b76018836113b3565b91506116c282611681565b602082019050919050565b600060208201905081810360008301526116e6816116aa565b9050919050565b7f4e6f742061737369676e656420746f2074686973207061706572000000000000600082015250565b6000611723601a836113b3565b915061172e826116ed565b602082019050919050565b6000602082019050818103600083015261175281611716565b9050919050565b7f5061706572206e6f7420726561647920666f7220726576696577000000000000600082015250565b600061178f601a836113b3565b915061179a82611759565b602082019050919050565b600060208201905081810360008301526117be81611782565b9050919050565b7f4e487b7100000000000000000000000000000000000000000000000000000000600052602260045260246000fd5b6000600282049050600182168061180c57607f821691505b60208210810361181f5761181e6117c5565b5b50919050565b7f5061706572206e6f7420756e6465722072657669657700000000000000000000600082015250565b600061185b6016836113b3565b915061186682611825565b602082019050919050565b6000602082019050818103600083015261188a8161184e565b9050919050565b60008190508160005260206000209050919050565b60006020601f8301049050919050565b600082821b905092915050565b6000600883026118f37fffffffffffffffffffffffffffffffffffffffffffffffffffffffffffffffff826118b6565b6118fd86836118b6565b95508019841693508086168417925050509392505050565b6000819050919050565b600061193a61193561193084610f89565b611915565b610f89565b9050919050565b6000819050919050565b6119548361191f565b61196861196082611941565b8484546118c3565b825550505050565b600090565b61197d611970565b61198881848461194b565b505050565b5b818110156119ac576119a1600082611975565b60018101905061198e565b5050565b601f8211156119f1576119c281611891565b6119cb846118a6565b810160208510156119da578190505b6119ee6119e6856118a6565b83018261198d565b50505b505050565b600082821c905092915050565b6000611a14600019846008026119f6565b1980831691505092915050565b6000611a2d8383611a03565b9150826002028217905092915050565b611a46826113a8565b67ffffffffffffffff811115611a5f57611a5e6111ff565b5b611a6982546117f4565b611a748282856119b0565b600060209050601f831160018114611aa75760008415611a95578287015190505b611a9f8582611a21565b865550611b07565b601f198416611ab586611891565b60005b82811015611add57848901518255600182019150602085019450602081019050611ab8565b86831015611afa5784890151611af6601f891682611a03565b8355505b6001600288020188555050505b505050505050565b6000602082019050611b2460008301846110f2565b92915050565b7f4e487b7100000000000000000000000000000000000000000000000000000000600052601160045260246000fd5b6000611b6482610f89565b91507fffffffffffffffffffffffffffffffffffffffffffffffffffffffffffffffff8203611b9657611b95611b2a565b5b600182019050919050565b60006020820190508181036000830152611bbb81846113ee565b90509291505056fea26469706673582212209c6d1e7abaea009fbc1292f5c4a9fcc6302d701d6830452ab58c737f213241e264736f6c63430008130033",
  "immutableReferences": {},
  "source": "// SPDX-License-Identifier: MIT\r\npragma solidity ^0.8.0;\r\n\r\ncontract PaperReviewSystem {\r\n    enum ReviewStatus { \r\n        Submitted,        // Paper initially submitted\r\n        AssignedToReviewer,  // Paper assigned to reviewer\r\n        UnderReview,     // Reviewer is checking the paper\r\n        ReviewCompleted,  // Review process completed\r\n        Rejected,        // Paper rejected\r\n        Accepted         // Paper accepted\r\n    }\r\n    \r\n    struct Paper {\r\n        address author;\r\n        string paperHash;     // IPFS hash of the paper\r\n        ReviewStatus status;\r\n        address assignedReviewer;\r\n        uint256 submissionTime;\r\n        uint256 reviewStartTime;\r\n        uint256 reviewCompletionTime;\r\n        string comments;\r\n    }\r\n    \r\n    // Paper ID => Paper details\r\n    mapping(uint256 => Paper) public papers;\r\n    uint256 public paperCount;\r\n    \r\n    // Reviewer address => boolean (approved or not)\r\n    mapping(address => bool) public approvedReviewers;\r\n    \r\n    // Events for logging\r\n    event PaperSubmitted(uint256 indexed paperId, address indexed author, string paperHash);\r\n    event ReviewerAssigned(uint256 indexed paperId, address indexed reviewer);\r\n    event ReviewStarted(uint256 indexed paperId);\r\n    event ReviewCompleted(uint256 indexed paperId, ReviewStatus status);\r\n    \r\n    // Modifiers\r\n    modifier onlyApprovedReviewer() {\r\n        require(approvedReviewers[msg.sender], \"Not an approved reviewer\");\r\n        _;\r\n    }\r\n    \r\n    modifier paperExists(uint256 _paperId) {\r\n        require(_paperId < paperCount, \"Paper does not exist\");\r\n        _;\r\n    }\r\n    \r\n    // Functions\r\n    function submitPaper(string memory _paperHash) external {\r\n        uint256 paperId = paperCount++;\r\n        papers[paperId] = Paper({\r\n            author: msg.sender,\r\n            paperHash: _paperHash,\r\n            status: ReviewStatus.Submitted,\r\n            assignedReviewer: address(0),\r\n            submissionTime: block.timestamp,\r\n            reviewStartTime: 0,\r\n            reviewCompletionTime: 0,\r\n            comments: \"\"\r\n        });\r\n        \r\n        emit PaperSubmitted(paperId, msg.sender, _paperHash);\r\n    }\r\n    \r\n    function assignReviewer(uint256 _paperId, address _reviewer) \r\n        external \r\n        paperExists(_paperId) \r\n    {\r\n        require(approvedReviewers[_reviewer], \"Assigned address is not an approved reviewer\");\r\n        require(papers[_paperId].status == ReviewStatus.Submitted, \"Paper cannot be assigned\");\r\n        \r\n        papers[_paperId].assignedReviewer = _reviewer;\r\n        papers[_paperId].status = ReviewStatus.AssignedToReviewer;\r\n        \r\n        emit ReviewerAssigned(_paperId, _reviewer);\r\n    }\r\n    \r\n    function startReview(uint256 _paperId) \r\n        external \r\n        onlyApprovedReviewer \r\n        paperExists(_paperId) \r\n    {\r\n        Paper storage paper = papers[_paperId];\r\n        require(paper.assignedReviewer == msg.sender, \"Not assigned to this paper\");\r\n        require(paper.status == ReviewStatus.AssignedToReviewer, \"Paper not ready for review\");\r\n        \r\n        paper.status = ReviewStatus.UnderReview;\r\n        paper.reviewStartTime = block.timestamp;\r\n        \r\n        emit ReviewStarted(_paperId);\r\n    }\r\n    \r\n    function completeReview(\r\n        uint256 _paperId, \r\n        bool _accepted, \r\n        string memory _comments\r\n    ) \r\n        external \r\n        onlyApprovedReviewer \r\n        paperExists(_paperId) \r\n    {\r\n        Paper storage paper = papers[_paperId];\r\n        require(paper.assignedReviewer == msg.sender, \"Not assigned to this paper\");\r\n        require(paper.status == ReviewStatus.UnderReview, \"Paper not under review\");\r\n        \r\n        paper.status = _accepted ? ReviewStatus.Accepted : ReviewStatus.Rejected;\r\n        paper.reviewCompletionTime = block.timestamp;\r\n        paper.comments = _comments;\r\n        \r\n        emit ReviewCompleted(_paperId, paper.status);\r\n    }\r\n    \r\n    // Getter functions\r\n    function getPaperStatus(uint256 _paperId) \r\n        external \r\n        view \r\n        paperExists(_paperId) \r\n        returns (\r\n            ReviewStatus status,\r\n            uint256 submissionTime,\r\n            uint256 reviewStartTime,\r\n            uint256 reviewCompletionTime\r\n        ) \r\n    {\r\n        Paper memory paper = papers[_paperId];\r\n        return (\r\n            paper.status,\r\n            paper.submissionTime,\r\n            paper.reviewStartTime,\r\n            paper.reviewCompletionTime\r\n        );\r\n    }\r\n}",
  "sourcePath": "C:\\AK\\SheetAgent\\paper-review-project\\contracts\\PaperReviewSystem.sol",
  "compiler": {
    "name": "solc",
    "version": "0.8.19+commit.7dd6d404.Emscripten.clang"
  },
  "schemaVersion": "3.4.16",
  "updatedAt": "2025-02-21T15:01:35.135Z",
  "networkType": "ethereum",
  "devdoc": {
    "kind": "dev",
    "methods": {},
    "version": 1
  },
  "userdoc": {
    "kind": "user",
    "methods": {},
    "version": 1
  }
}